:020000040800F2
:100000005807002089010008B51700080D140008E2
:10001000ED1500088F0200080B1B0008000000000F
:10002000000000000000000000000000B9170008F8
:100030009102000800000000B7170008BB17000875
:10004000A3010008A3010008A3010008A301000800
:10005000A3010008A3010008A3010008A3010008F0
:10006000A3010008A3010008A3010008A3010008E0
:10007000A3010008A3010008A3010008A3010008D0
:10008000A3010008A3010008A3010008A3010008C0
:10009000A3010008A3010008A3010008A3010008B0
:1000A000A3010008A3010008A3010008211800080B
:1000B0002D18000839180008A3010008A301000842
:1000C000A3010008A3010008A3010008A301000880
:1000D000A3010008A3010008A3010008A301000870
:1000E000A3010008A3010008A301000800F002F822
:1000F00000F03AF80AA090E8000C82448344AAF188
:100100000107DA4501D100F02FF8AFF2090EBAE885
:100110000F0013F0010F18BFFB1A43F0010318473B
:10012000FC1E00001C1F0000103A24BF78C878C1D4
:10013000FAD8520724BF30C830C144BF04680C60ED
:10014000704700000023002400250026103A28BF35
:1001500078C1FBD8520728BF30C148BF0B60704739
:100160001FB51FBD10B510BD00F058F81146FFF7C0
:10017000F7FF01F0E7FC00F076F803B4FFF7F2FFB9
:1001800003BC00F07DF8000009488047094800479B
:10019000FEE7FEE7FEE7FEE7FEE7FEE7FEE7FEE737
:1001A000FEE7FEE704480549054A064B7047000094
:1001B0001D180008ED000008580100205807002015
:1001C00058030020580300204FF0000200B51346EA
:1001D00094469646203922BFA0E80C50A0E80C5067
:1001E000B1F12001BFF4F7AF090728BFA0E80C5018
:1001F00048BF0CC05DF804EB890028BF40F8042B11
:1002000008BF704748BF20F8022B11F0804F18BF7D
:1002100000F8012B7047704770477047754600F033
:100220002BF8AE4605006946534620F00700854688
:1002300018B020B5FFF7B6FFBDE820404FF000062C
:100240004FF000074FF000084FF0000B21F00701BE
:10025000AC46ACE8C009ACE8C009ACE8C009ACE801
:10026000C0098D46704710B50446AFF300802046A4
:10027000BDE81040FFF781BF00487047F80000203C
:1002800001491820ABBEFEE7260002007047FEE7DA
:100290007047000070B5044600F004F90546601C84
:1002A00002D004480078044400F0FCF8401BA0424F
:1002B000FAD370BD100000202DE9F84FDFF8B89197
:1002C0000024A9F1040B23460F2709F1040AABF11E
:1002D000040EC9E00125A5402A40AA427DD1674EFF
:1002E000D1F804C0ACEB0608B44532D014DCBCF144
:1002F000030F3AD009DCBCF1000F2AD0BCF1010F8A
:100300001CD0BCF1020F31D11DE0BCF1110F17D090
:10031000BCF1120F2AD119E0B8F5881F19D006DCFC
:10032000B8F5803F15D0B8F5801F1FD111E0B8F5A2
:10033000001F0ED0B8F5041F18D10AE0CB6815E0F5
:10034000CB681B1D12E0CB6808330FE0CB680C3381
:100350000CE08B682BB1012B4FF0080303D04561F3
:1003600004E0042302E0056100E00023FF2A01D835
:10037000064601E000F104064FEA840501D9A5F123
:100380002005D6F8008007FA05FC28EA0C0803FAD5
:1003900005F548EA0508C6F800804D68ED0062D50D
:1003A000374DAE6946F00106AE61AD6924F0030633
:1003B00005F001050095334D06EB050CDCF80850FF
:1003C000A607360F07FA06F825EA0805DFF8B88011
:1003D000404503D14FF0000817E044E0DFF8AC805F
:1003E000404502D14FF001080FE0DFF8A4804045FE
:1003F00002D14FF0020808E0DFF89880404502D1B2
:100400004FF0030801E04FF0040808FA06F848EA44
:100410000508CCF808804D68D9F80060ED024D461B
:1004200001D5164300E096432E604D68DAF800606F
:10043000AD02554601D5164300E096432E604D6847
:10044000DBF80060AD035D4601D5164300E096433E
:100450002E604D68DEF80060ED03754601D5164349
:1004600000E096432E60641C0D682A46E5407FF448
:1004700031AFBDE8F88F0000080401400000111002
:10048000001002400000014000080140000C014043
:1004900000100140001401400AB1016170470904D5
:1004A000FBE7000001488068704700001000002052
:1004B0000248816802781144816070471000002072
:1004C000074810B5016841F010010160032000F0F9
:1004D00075F80F2000F006F800F024F8002010BD99
:1004E0000020024070B50D4D04464FF47A71287813
:1004F000B1FBF0F00A490968B1FBF0F000F0BCFA7A
:1005000048B9102C07D200222146501E00F036F8C0
:1005100000206C6070BD012070BD00001000002044
:100520001C0000200C4808B5816941F0010181617F
:10053000816901F001010091C16941F08051C161FF
:10054000C06900F0805000900448416821F0E061EB
:1005500041F00071416008BD001002400000014000
:10056000002809DB00F01F020121914040098000B2
:1005700000F1E020C0F8001170470000F0B40E4B0D
:100580001B680C46C3F30223C3F10705042D00D9F1
:100590000425191D072901D2002300E0DB1E0126D6
:1005A00006FA05F1491E214099409E40761E1640EC
:1005B0003143F0BC01F0AABA0CED00E0064900F0AE
:1005C000070208684FF6FF03184040EA0220034A7A
:1005D00010430860704700000CED00E00000FA05D1
:1005E0002DE9F0470F46050061D0434E306800F01A
:1005F0000700B84209D2306820F007003843306065
:10060000306800F00700B84251D128683B4C8107A0
:1006100012D5400703D5606840F4E0606060287838
:10062000000703D5606840F4605060606068A968A6
:1006300020F0F000084360602878C00728D0686880
:10064000012810D02168022810D0890700292EDA4D
:10065000616821F0030101436160FFF723FF8046D9
:1006600041F288390DE021688903EFE78901EDE760
:10067000FFF718FFA0EB0801494502D90320BDE8A8
:10068000F0876068696800F00C00B0EB810FEFD173
:10069000306800F00700B8420BD9306820F007003E
:1006A00038433060306800F00700B84201D00120C4
:1006B000E5E72878400705D56068E96820F4E06040
:1006C000084360602878000706D56068296920F42F
:1006D000605040EAC100606000F018F86168084AA4
:1006E000C1F30311515CC840064908600648006820
:1006F000FFF7F8FE0020C2E7002002400010024091
:100700000A2000081C000020140000200E4A516836
:100710000E4801F00C03042B11D0082B0FD10C480C
:10072000C1F38343C903C05C0AD55168084AC1F3C9
:100730004041921E515C054A5043B0FBF1F07047B6
:1007400004494843704700000010024000127A003C
:10075000FA1F000800093D002DE9F84F040070D091
:100760002078C04DC00749D06868C0F381000128D7
:1007700007D06868C0F38100022809D16868C00307
:1007800006D52868800339D560680028E7D035E0B1
:100790006068B0F5803F0BD010B1B0F5A02F11D03C
:1007A000286820F480302860286820F4802002E047
:1007B000286840F480302860606890B1FFF772FECE
:1007C00006460AE0286840F480202860F0E700BF71
:1007D000FFF768FE801B642873D828688003F7D56C
:1007E0000CE0FFF75FFE064605E000BFFFF75AFE8C
:1007F000801B6428F0D828688003F7D420789A4EAC
:1008000080074FF001094FF0000839D5686810F0F3
:100810000C0F07D06868C0F38100022809D168680E
:10082000C00306D42868800714D52069012808D1A0
:1008300010E02069B0B1C6F80090FFF733FE07461C
:1008400005E00AE1FFF72EFEC01B0228C4D8286885
:100850008007F7D52868616920F0F80040EAC100F8
:1008600028600DE0C6F80080FFF71CFE074604E094
:10087000FFF718FEC01B022823D828688007F7D48A
:10088000207800072CD57948A169D9B1C0F800902B
:10089000FFF708FE074604E0FFF704FEC01B02282E
:1008A0000FD8686A8007F7D571484FF4FA5100688D
:1008B000B0FBF1F0009000BF0098411E0091FAD209
:1008C0000EE080E0C0F80080FFF7ECFD074604E092
:1008D000FFF7E8FDC01B022875D8686A8007F7D4C7
:1008E0002078400760D5E8690027C00008D4E8698F
:1008F00040F08050E861E869012700F080500090E6
:100900005C480168C90513D40168834641F48071CD
:100910000160FFF7C7FD824606E000BFFFF7C2FD9A
:10092000A0EB0A0064284ED8DBF80000C005F5D51E
:10093000E06801280AD008B1052813D0286A20F001
:1009400001002862286A20F0040002E0286A40F0D2
:1009500001002862E06841F2883B98B1FFF7A2FDF0
:1009600082460BE0286A40F004002862EEE700BFF0
:10097000FFF798FDA0EB0A0159455AD8286A80076D
:10098000F6D50CE0FFF78EFD824605E0FFF78AFD05
:10099000A0EB0A0159454CD8286A8007F6D41FB14C
:1009A000E86920F08050E861E06988B36968C1F3C4
:1009B0008101022944D00228C6F8608004D0FFF7E4
:1009C00071FD044638E034E0FFF76CFD074604E0B3
:1009D000FFF768FDC01B02282BD828688001F7D4D8
:1009E000206AB0F5803F05D16868A16820F4003026
:1009F00008436860D4E908010843696821F4741168
:100A000008436860C6F86090FFF74CFD044606E0B6
:100A100025E000BFFFF746FD001B022809D8286823
:100A20008001F7D51BE000BFFFF73CFD001B02284B
:100A300002D90320BDE8F88F28688001F4D40EE0C5
:100A40000128F7D06868226A00F48031914204D10D
:100A5000616A00F47010884201D00120EAE70020AA
:100A6000E8E70000001002400000424280044242D9
:100A70001C0000200070004010B5401EB0F1807FC7
:100A800001D3012010BD4FF0E02460610F216017F9
:100A900001F03CF80020A06107202061002010BD7B
:100AA0007047704770B590F83C20012A26D0012489
:100AB00080F83C40022280F83D2003685A689D6817
:100AC00022F070060A6832435A600D4B02689A425F
:100AD00008D0B2F1804F05D00A4B9A4202D00A4B9F
:100AE0009A4204D1496825F080031943916080F847
:100AF0003D40002180F83C10084670BD022070BDCA
:100B0000002C0140000400400008004010B5040023
:100B100003D094F83D0010B107E0012010BD002083
:100B200084F83C00204600F01FF8022084F83D00C5
:100B3000211D206800F086FE012084F8460084F81C
:100B40003E0084F83F0084F8400084F8410084F8B7
:100B5000420084F8430084F8440084F8450084F897
:100B60003D00002010BD000000B585B000210091BF
:100B7000019102910391244A0168244891421CD1B9
:100B8000816941F400618161816901F4006104912E
:100B9000816941F0040181618069694600F00400C7
:100BA0000490901500901A48FFF786FB002211462A
:100BB0001B20FFF7E3FC1B2022E0B1F1804F11D096
:100BC000144A91421ED1C16941F00201C161C0695C
:100BD000002200F00200049003211D20FFF7CEFC4C
:100BE0001D200DE0C16941F00101C161C069002211
:100BF00000F00100049002211C20FFF7BFFC1C2024
:100C0000FFF7AEFC05B000BD002C01400010024013
:100C1000000801400004004070B5044690F83C0014
:100C20000025012817D0012684F83C60022084F8B2
:100C30003D002068826822F0770222F47F428260C1
:100C40000868502838D00DDC20284FD005DC90B340
:100C5000102811D14AE0022070BD302846D040282B
:100C60000AD13BE060282FD070280DD0B0F5805F0E
:100C700003D0B0F5005F12D0012584F83D6000205C
:100C800084F83C00284670BDCB68D1E9012120687A
:100C900000F01BFE2068816841F0770109E0CB6815
:100CA000D1E90121206800F010FE2068816841F43C
:100CB00080418160E1E719E0CA684968206800F076
:100CC000B9FE5021206806E0CA684968206800F033
:100CD000EFFE6021206800F002FECEE7CA68496896
:100CE000206800F0A7FE40212068F4E72268014652
:100CF0001046F0E770B50546007F012822D1254C4B
:100D0000207870B101281DD10021284600F047FB52
:100D1000A060296800264E626168884213D9401A93
:100D200019E00021284600F03AFB606001202070A5
:100D30002868016A21F00A0101622868016A41F00D
:100D40000201016270BD814201D8E06804E04FF603
:100D5000FF72511A0844E06000F0C5FF0E4A0F4BC5
:100D600000F0D4FF4FF0FF3201F000F900F08EFFE9
:100D7000607026702868016A21F00A010162286803
:100D8000016A016206480068C16821F00201C16081
:100D900070BD0000000000209CC420B07268A13F1C
:100DA000200000202DE9F041054690F83C00002687
:100DB0000C46012810D0012085F83C0072B1042AAD
:100DC0001CD0082A2CD00C2A50D00126002085F8EF
:100DD0003C003046BDE8F0810220FBE7D4E9001278
:100DE000E368286800F038FE2868816921F00C016A
:100DF000816128688169A26811430FE0D4E900127B
:100E0000E368286800F066FE2868816921F4406183
:100E1000816128688169A26841EA02218161D5E780
:100E20002868D4E9002C277B036A016A21F48071C9
:100E30000162C16923F4007321F0030141EA0C014E
:100E400021F0F00C39074FF400774CEA116107EA02
:100E500002221A43C16102622868C16921F00C01B3
:100E6000C1612868C169A26811432BE02868D4E9F0
:100E70000021E768036AD0F820C02CF4805CC0F839
:100E800020C0D0F81CC023F400532CF4407C4CEA62
:100E9000012121F4704C4FF6FF7101EA07314FF444
:100EA000005741EA0C0107EA02321A43C1610262AB
:100EB0002868C16921F44061C1612868C169A268DC
:100EC00041EA0221C16181E710B5040003D094F822
:100ED0003D0010B107E0012010BD002084F83C0067
:100EE000204600F01EF8022084F83D00211D2068F5
:100EF00000F0A8FC012084F8460084F83E0084F845
:100F00003F0084F8400084F8410084F8420084F8EF
:100F1000430084F8440084F8450084F83D00002034
:100F200010BD704730B50446002551B104290DD0DD
:100F3000082910D094F8410094F84520012811D1D7
:100F40000EE094F83E0094F84220F7E794F83F0052
:100F500094F84320F2E794F8400094F84420EDE739
:100F6000012A01D0012030BD022059B1042912D03C
:100F7000082919D084F8410084F845000C2938D09C
:100F8000012534E084F83E0084F842002068C268FD
:100F900042F0020210E084F83F0084F84300206829
:100FA000C26842F0040207E084F8400084F844007C
:100FB0002068C26842F00802C2600122206800F086
:100FC00077FC0E492068884208D0B0F1804F05D0E8
:100FD0000B49884202D00B49884204D1816801F054
:100FE0000701062903D0016841F00101016028468C
:100FF00030BD2068C26842F01002DDE7002C0140DD
:10100000000400400008004070B504460068016913
:101010004FF00005C943890715D4C168C943890742
:1010200011D4E91E016101202077206880698007C2
:10103000204602D0FFF75EFE04E000F0CBF8204629
:1010400000F05DF9257720680169C943490717D485
:10105000C168C943490713D46FF00401016102203C
:1010600020772068806910F4407F204602D0FFF787
:1010700041FE04E000F0AEF8204600F040F925778C
:1010800020680169C943090716D4C168C943090723
:1010900012D46FF008010161042020772068C06934
:1010A0008007204602D0FFF725FE04E000F092F80A
:1010B000204600F024F9257720680169C943C90654
:1010C00017D4C168C943C90613D46FF01001016178
:1010D000082020772068C06910F4407F204602D0A5
:1010E000FFF708FE04E000F075F8204600F007F96D
:1010F000257720680169C943C90708D1C168C94378
:10110000C90704D1891E0161204600F047F9206813
:101110000169C943090609D4C168C943090605D450
:101120006FF0800101612046FFF7BAFC2068016979
:10113000C943490609D4C168C943490605D46FF0BB
:1011400040010161204600F03FF920680169C94370
:1011500089060BD4C168C943890607D46FF0200102
:1011600001612046BDE87040FFF79BBC70BD0000E8
:1011700010B586B00021009101910291039103689E
:10118000114902221148B3F1804F13D0104CA342F1
:101190000ED18B6943F004038B61896901F004016E
:1011A00004918021CDE9001269460392FFF784F88B
:1011B00006B010BD8B6943F004038B61896901F0AF
:1011C000040104910321EDE70010024000080140F2
:1011D00000040040704770B5044690F83C000026BB
:1011E0000D4601280FD0012084F83C006AB1042A82
:1011F0001DD0082A2FD00C2A3FD00126002084F8C9
:101200003C00304670BD022070BD206800F070FBCD
:101210002068816941F0080181612068816921F0BD
:1012200004018161206881692A69114311E0206805
:1012300000F086FB2068816941F4006181612068CB
:10124000816921F480618161206881692A6941EAAC
:1012500002218161D2E7206800F09EFB2068C1690D
:1012600041F00801C1612068C16921F00401C16138
:101270002068C1692A69114311E0206800F0B8FBB9
:101280002068C16941F40061C1612068C16921F42D
:101290008061C1612068C1692A6941EA0221C16196
:1012A000ACE710B5040003D094F83D0010B107E09E
:1012B000012010BD002084F83C00204600F01EF8FC
:1012C000022084F83D00211D206800F0BBFA0120B7
:1012D00084F8460084F83E0084F83F0084F840001B
:1012E00084F8410084F8420084F8430084F8440004
:1012F00084F8450084F83D00002010BD7047704719
:1013000010B50446022249B104290ED0082913D091
:1013100094F84100012816D0012010BD94F83E0039
:101320000128F9D184F83E200FE094F83F0001280D
:10133000F2D184F83F2008E094F840000128EBD176
:1013400084F8402001E084F841200122206800F068
:10135000AFFA0F492068884203D1426C42F4004240
:1013600042642068884208D0B0F1804F05D0094916
:10137000884202D00849884204D1816801F00701FF
:10138000062903D0016841F001010160002010BD71
:10139000002C014000040040000800407047024655
:1013A000002041B1042909D008290AD00C2901D113
:1013B0001068006C70471068406B70471068806B55
:1013C00070471068C06B70477047000070B501220D
:1013D0000B4D540221462846FFF75EF80A2000F024
:1013E000A5FB002221462846FFF756F8054800686D
:1013F000C16841F00201C1600348407870BD00003F
:10140000000801402000002000000020FEE700004E
:1014100010B58AB0002423480494059406940794D8
:10142000089409940094019402941D490394016066
:101430004721C0E901144FF6FE71C0E9031444616D
:101440008461FFF763FB08B172B6FEE74FF480508A
:10145000049004A91348FFF7DFFB08B172B6FEE75A
:101460001048FFF731FD08B172B6FEE7089408A9ED
:101470000C480994FFF716FB08B172B6FEE701208D
:10148000CDE9004002940022694606480394FFF724
:1014900089FC002801D072B6FEE70AB010BD00003A
:1014A000002C01402000002010B58EB000240794CD
:1014B000089409940A940B941C2168460C94FEF736
:1014C00083FE22484FF08041016040F60F61C0E981
:1014D000011440F2E731C0E903148461FFF716FB01
:1014E00008B172B6FEE74FF48050079007A917487D
:1014F000FFF792FB08B172B6FEE71448FFF7D1FE82
:1015000008B172B6FEE70B940BA910480C94FFF7D4
:10151000C9FA08B172B6FEE76020CDE90004029472
:101520000022694609480494FFF755FE08B172B6D7
:10153000FEE7042269460548FFF74DFE08B172B682
:10154000FEE70248FFF714FE0EB010BD6800002051
:1015500010B58EB000240794089409940A940B9453
:101560001C2168460C94FEF72FFE1F481D490160A0
:101570004FF4A071C0E9011441F29311C0E90314C2
:101580008461FFF7C3FA08B172B6FEE74FF48050EA
:10159000079007A91448FFF73FFB08B172B6FEE7B2
:1015A0001148FFF77EFE08B172B6FEE70B940BA957
:1015B0000D480C94FFF776FA08B172B6FEE760208A
:1015C000CDE9000402940422694607480494FFF719
:1015D00002FE08B172B6FEE70348FFF7C9FD0EB080
:1015E00010BD000000040040B0000020FEE7000035
:1015F00070B50E4D0446012208212846FEF74CFF27
:10160000002210212846FEF747FF0022202128460D
:10161000FEF742FF012240212846FEF73DFF044825
:1016200001684C630068846370BD000000080140DD
:101630006800002070B51E4C05464FF416702168F6
:10164000486321684FF47A7088631A4E002208219B
:101650003046FEF721FF012210213046FEF71CFF25
:10166000002220213046FEF717FF0122402130469C
:10167000FEF712FF40F28A20FEF70CFE2068456359
:1016800020688563012208213046FEF705FF00220D
:1016900010213046FEF700FF002220213046FEF7E1
:1016A000FBFE3046BDE8704001224021FEF7F4BE4B
:1016B000680000200008014070B50E4D044600226D
:1016C00008212846FEF7E8FE012210212846FEF7F1
:1016D000E3FE012220212846FEF7DEFE0022402103
:1016E0002846FEF7D9FE044801684C63006884630D
:1016F00070BD0000000801406800002070B51E4C5D
:1017000005464FF47A702168486321684FF41670DB
:1017100088631A4E012208213046FEF7BDFE0022E2
:1017200010213046FEF7B8FE012220213046FEF798
:10173000B3FE002240213046FEF7AEFE40F28A2082
:10174000FEF7A8FD20684563206885630122082113
:101750003046FEF7A1FE002210213046FEF79CFE27
:10176000002220213046FEF797FE3046BDE870404B
:1017700001224021FEF790BE6800002000080140D1
:1017800010B50B4C002208212046FEF785FE0022F2
:1017900010212046FEF780FE002220212046FEF781
:1017A0007BFE20460022BDE810404021FEF774BEBB
:1017B00000080140FEE770477047FEF779BE30B57C
:1017C0008FB028216846FEF7FFFC14210AA8FEF717
:1017D000FBFC01210804CDE900100024029402253D
:1017E0000491CDE907504FF4E01009906846FEF7E8
:1017F000B3FF08B172B6FEE70F20CDE90A054FF43A
:101800008060CDE90C4002210AA80E94FEF7E8FEA4
:10181000002801D072B6FEE70FB030BD704700005F
:101820000148FFF7F1BB0000200000200148FFF74E
:10183000EBBB0000680000200148FFF7E5BB00009B
:10184000B0000020F0B50268164B174C174D4FF052
:101850008047984205D0B84203D0A04201D0A842A8
:1018600003D122F070064A683243984205D0B8424C
:1018700003D0A04201D0A84203D122F44074CA6828
:1018800022434C6922F08002224302608A68C262CD
:101890000A688262984201D10969016301214161AC
:1018A000F0BD0000002C0140000400400008004092
:1018B00010B501F01F030121046A99408C430462B2
:1018C000016A9A401143016210BD10B5846842EA72
:1018D000032224F47F440A432243826010BD8268BD
:1018E00022F070020A4342F0070181607047000055
:1018F00030B5036A026A22F001020262426884691A
:1019000024F073050C682C4323F002058B682B43ED
:101910000A4DA8420BD123F00805CB6822F440728F
:101920002B434D6923F0040315438A692A4342601F
:10193000846149684163036230BD0000002C0140AE
:1019400030B5026A036A23F01003036243688469B6
:101950000D6824F4E64444EA05248D6822F0200250
:1019600042EA05120B4DA8420ED1CD6822F080024A
:1019700042EA05124D6923F4406343EA85038D6909
:1019800022F0400243EA8503436084614968816331
:10199000026230BD002C014030B5036A026A22F4B5
:1019A000807202624268C46923F4007324F07305F4
:1019B0000C682C438D6843EA05230C4DA8420ED1D8
:1019C000CD6823F4006343EA05234D6922F44052B5
:1019D00042EA05128D6923F4806342EA05124260EF
:1019E000C4614968C163036230BD0000002C01403E
:1019F00030B5046A026A22F4805202624268C36906
:101A00000D6823F4E64343EA05238D6824F400546B
:101A100044EA0534064DA84204D14D6922F48042BF
:101A200042EA85124260C36149680164046230BDC4
:101A3000002C014010B5036A046A24F0010404621A
:101A4000846924F0F00444EA021423F00A020A43F1
:101A50008461026210BD000070B5056A046A24F05A
:101A60000104046284690F4EB04208D0B0F1804F87
:101A700005D00D4EB04202D00C4EB04203D124F03E
:101A80000304144301E044F001041A0724F0F004B5
:101A900044EA126225F00A0301F00A011943826147
:101AA000016270BD002C01400004004000080040AD
:101AB00010B5036A046A24F010040462846923F0F8
:101AC000A00324F4704444EA023243EA0111826123
:101AD000016210BD30B5046A056A25F01005056283
:101AE000856925F4407545EA022222F470454FF6D7
:101AF000FF7202EA033224F0A0032A43A02404EA7E
:101B0000011119438261016230BDFEE70907090E28
:101B1000002804DB00F1E02080F80014704700F09A
:101B20000F0000F1E02080F8141D704704490022E6
:101B30000B685A6209684A6A8242FCD37047000007
:101B40002000002086B0FEF7BBFCFFF738FE002423
:101B500046480094019402940394816941F0200165
:101B60008161816901F020010491816941F00401E2
:101B7000816180693E4E00F004004FF41E750490B0
:101B8000002229463046FEF787FC01200095CDE96A
:101B900001040220039069463046FEF78DFBFFF7F3
:101BA00037FCFFF781FCFFF7D3FC00213148FFF73A
:101BB000B9F9304804219030FFF7A2FB2D480021ED
:101BC0004830FFF79DFB2B4804214830FFF798FB76
:101BD000284C40F23B16903420688663FFF7F6FBF2
:101BE000254D01E0FFF7F2FB0028FBD0A9788842E1
:101BF000F8D8401E162831D2FFF7C2FD4FF4967078
:101C0000FEF748FB216850208863FFF7DFFB07469B
:101C10004FF4C8784046FEF73DFB20688663216894
:101C20004FF407708863FFF7D1FB05464046FEF787
:101C300031FB206886630F2D06D80F2F04D8C820EB
:101C4000FFF73AFDFFF79CFDBD424FF0C80002D9F7
:101C5000FFF7F0FC05E0FFF751FD02E0C820FFF7B9
:101C6000C7FCC820FEF716FBB6E7000000100240D4
:101C700000080140200000200000002002494FF031
:101C8000000000F041B900BF0000F87F4FEA115397
:101C9000A3F58063D3F11E03A8BFD3F1200C08DBAA
:101CA0004FF0004242EAC12252EA505232FA03F0A7
:101CB000704709420BD4102BC4BF0020704703F5B6
:101CC000787CBCF1FF3F05D04FF0FF3070474FF0FC
:101CD0000000704770B500F0C3F800BF499224803F
:101CE00000207047F0E7B0FA80F310FA03F10AD051
:101CF000C3F11D0303F580634FEA41504FEA0352DD
:101D000002EBD12170474FF000007047DFF848C167
:101D100070B51CEA111E1EBF1CEA13159EEA0C0FBB
:101D200095EA0C0F00F06F8081EA030423EA4C135C
:101D30004EEAD47E21EA4C1141F4801143F4801321
:101D4000AE44A1FB024CA0FB0365AEF17F7E3619C9
:101D500055EB0C05A1FB034C4CF10003A0FB021C4E
:101D600016EB0C06654153F10003094218BF46F01B
:101D7000010613F4007F0BD14FEA03314FEA05301F
:101D8000340341EA155140EA16506FF003020AE0AD
:101D90004FEAC3214FEAC520F40241EA555140EA17
:101DA00056506FF0020202EB2E4201EB025585EA1B
:101DB000CE710AD05FEA440C18BF24F0004450F101
:101DC000000041F1000120EAD47040F2FE7C62453F
:101DD00000D270BDA84214BF4FF080444FF0404481
:101DE000002E08BF0024BEF1806FA8BFA1F1C04142
:101DF000BDE8704080F282804FF0000001F1C041E8
:101E000001F0004170479EEA0C0F0CEA131518BF51
:101E100095EA0C0F06D04FF0000081EA030E0EF099
:101E2000004170BD00F01CF88900013E00F007B8C9
:101E300000F009B84FEA430C5FEA5C5C08D081EA25
:101E4000030100F05BB84FEA410C5FEA5C5CF6D13D
:101E50004FF00000014970470000FF070000F87FC5
:101E60000EF1020E2EF0030E5EF8046B364205D41E
:101E7000012A43EB030515F5001F12D8012841EB99
:101E8000010C1CF5001F0CD80ED14FEAD17C15F5C2
:101E9000001F0CEB4C0C0CF1020C08BF4CEBD37C7C
:101EA00004E04FF0080C01E04FEAD37C0CEB4C054A
:101EB00026FA05F606F00706B6F1040C06D20EEB7C
:101EC000860CBDE870404CF0010C6047DFE80CF078
:101ED000090B02024FF000414FF00000A1F5002174
:101EE00070BD19461046012851EB010418BFD4F506
:101EF000001484BF002001F0004170BD0808A0F567
:101F000000114FEA310170470CF00F03092B08BF95
:101F1000082000F059800A2B0BD0082B18BF7047FF
:101F200008BF1CF0400F0AD04FF000004FF0000136
:101F300070471CF0400F18BF4FF0004070471CF076
:101F4000100F08D020F0704300F07F4242EAD30126
:101F50004FEA4370704700F0604021F07F4242EA50
:101F6000000201F07F4040EA727070474FF0FF0CB2
:101F70004CF4E06C1CEA11531CBF9CEA030C944522
:101F8000C2BFDA4201EB02517047002B0DD0BCF109
:101F9000000F0FD0002A01F00041A4BF41F0E04142
:101FA00041F07F614FF00000704701F000414FF0B9
:101FB0000000704750EA01334FF09B0C18BF4CF003
:101FC000806C7FF45BAE70471CF4801F11D01CF452
:101FD000E02F03D06FEACC31490070474FF04050FA
:101FE000EFF3008222F0704242EA000282F300889E
:101FF00070474FF000007047010202030405060716
:1020000008090A0B0C0D0E0F101000000000000054
:102010000000010203040607080900003C20000834
:102020000000002020000000280100085C200008BB
:10203000200000203807000044010008000096003E
:10204000000000000000000000000000010000008F
:0C20500010000000000000000024F4005C
:04000005080000ED02
:00000001FF
